{"contracts/UpdateBase64Transaction.sol":{"UpdateBase64Transaction":{"abi":[{"inputs":[],"stateMutability":"nonpayable","type":"constructor"},{"anonymous":false,"inputs":[{"indexed":false,"internalType":"address","name":"_user","type":"address"},{"indexed":false,"internalType":"string","name":"_base64","type":"string"}],"name":"SetBase64","type":"event"},{"inputs":[],"name":"getBase64","outputs":[{"internalType":"string","name":"","type":"string"}],"stateMutability":"view","type":"function"},{"inputs":[{"internalType":"string","name":"_newBase64","type":"string"}],"name":"setBase64","outputs":[],"stateMutability":"nonpayable","type":"function"}],"evm":{"bytecode":{"linkReferences":{},"object":"608060405234801561001057600080fd5b50610552806100206000396000f3fe608060405234801561001057600080fd5b50600436106100365760003560e01c8063620795c81461003b578063fe7df6a114610057575b600080fd5b6100556004803603810190610050919061026d565b610075565b005b61005f6100c8565b60405161006c919061032e565b60405180910390f35b806000908051906020019061008b92919061015a565b507f20984856cad1d0fc11e1297bb28babf918a65e0a179748742803bdb310a160f733826040516100bd9291906102fe565b60405180910390a150565b6060600080546100d790610436565b80601f016020809104026020016040519081016040528092919081815260200182805461010390610436565b80156101505780601f1061012557610100808354040283529160200191610150565b820191906000526020600020905b81548152906001019060200180831161013357829003601f168201915b5050505050905090565b82805461016690610436565b90600052602060002090601f01602090048101928261018857600085556101cf565b82601f106101a157805160ff19168380011785556101cf565b828001600101855582156101cf579182015b828111156101ce5782518255916020019190600101906101b3565b5b5090506101dc91906101e0565b5090565b5b808211156101f95760008160009055506001016101e1565b5090565b600061021061020b84610375565b610350565b90508281526020810184848401111561022c5761022b6104fc565b5b6102378482856103f4565b509392505050565b600082601f830112610254576102536104f7565b5b81356102648482602086016101fd565b91505092915050565b60006020828403121561028357610282610506565b5b600082013567ffffffffffffffff8111156102a1576102a0610501565b5b6102ad8482850161023f565b91505092915050565b6102bf816103c2565b82525050565b60006102d0826103a6565b6102da81856103b1565b93506102ea818560208601610403565b6102f38161050b565b840191505092915050565b600060408201905061031360008301856102b6565b818103602083015261032581846102c5565b90509392505050565b6000602082019050818103600083015261034881846102c5565b905092915050565b600061035a61036b565b90506103668282610468565b919050565b6000604051905090565b600067ffffffffffffffff8211156103905761038f6104c8565b5b6103998261050b565b9050602081019050919050565b600081519050919050565b600082825260208201905092915050565b60006103cd826103d4565b9050919050565b600073ffffffffffffffffffffffffffffffffffffffff82169050919050565b82818337600083830152505050565b60005b83811015610421578082015181840152602081019050610406565b83811115610430576000848401525b50505050565b6000600282049050600182168061044e57607f821691505b6020821081141561046257610461610499565b5b50919050565b6104718261050b565b810181811067ffffffffffffffff821117156104905761048f6104c8565b5b80604052505050565b7f4e487b7100000000000000000000000000000000000000000000000000000000600052602260045260246000fd5b7f4e487b7100000000000000000000000000000000000000000000000000000000600052604160045260246000fd5b600080fd5b600080fd5b600080fd5b600080fd5b6000601f19601f830116905091905056fea26469706673582212203da00dea628041d9691d32cd97d77a7d1b85f9d28db85875df757e1663fc341b64736f6c63430008070033","opcodes":"PUSH1 0x80 PUSH1 0x40 MSTORE CALLVALUE DUP1 ISZERO PUSH2 0x10 JUMPI PUSH1 0x0 DUP1 REVERT JUMPDEST POP PUSH2 0x552 DUP1 PUSH2 0x20 PUSH1 0x0 CODECOPY PUSH1 0x0 RETURN INVALID PUSH1 0x80 PUSH1 0x40 MSTORE CALLVALUE DUP1 ISZERO PUSH2 0x10 JUMPI PUSH1 0x0 DUP1 REVERT JUMPDEST POP PUSH1 0x4 CALLDATASIZE LT PUSH2 0x36 JUMPI PUSH1 0x0 CALLDATALOAD PUSH1 0xE0 SHR DUP1 PUSH4 0x620795C8 EQ PUSH2 0x3B JUMPI DUP1 PUSH4 0xFE7DF6A1 EQ PUSH2 0x57 JUMPI JUMPDEST PUSH1 0x0 DUP1 REVERT JUMPDEST PUSH2 0x55 PUSH1 0x4 DUP1 CALLDATASIZE SUB DUP2 ADD SWAP1 PUSH2 0x50 SWAP2 SWAP1 PUSH2 0x26D JUMP JUMPDEST PUSH2 0x75 JUMP JUMPDEST STOP JUMPDEST PUSH2 0x5F PUSH2 0xC8 JUMP JUMPDEST PUSH1 0x40 MLOAD PUSH2 0x6C SWAP2 SWAP1 PUSH2 0x32E JUMP JUMPDEST PUSH1 0x40 MLOAD DUP1 SWAP2 SUB SWAP1 RETURN JUMPDEST DUP1 PUSH1 0x0 SWAP1 DUP1 MLOAD SWAP1 PUSH1 0x20 ADD SWAP1 PUSH2 0x8B SWAP3 SWAP2 SWAP1 PUSH2 0x15A JUMP JUMPDEST POP PUSH32 0x20984856CAD1D0FC11E1297BB28BABF918A65E0A179748742803BDB310A160F7 CALLER DUP3 PUSH1 0x40 MLOAD PUSH2 0xBD SWAP3 SWAP2 SWAP1 PUSH2 0x2FE JUMP JUMPDEST PUSH1 0x40 MLOAD DUP1 SWAP2 SUB SWAP1 LOG1 POP JUMP JUMPDEST PUSH1 0x60 PUSH1 0x0 DUP1 SLOAD PUSH2 0xD7 SWAP1 PUSH2 0x436 JUMP JUMPDEST DUP1 PUSH1 0x1F ADD PUSH1 0x20 DUP1 SWAP2 DIV MUL PUSH1 0x20 ADD PUSH1 0x40 MLOAD SWAP1 DUP2 ADD PUSH1 0x40 MSTORE DUP1 SWAP3 SWAP2 SWAP1 DUP2 DUP2 MSTORE PUSH1 0x20 ADD DUP3 DUP1 SLOAD PUSH2 0x103 SWAP1 PUSH2 0x436 JUMP JUMPDEST DUP1 ISZERO PUSH2 0x150 JUMPI DUP1 PUSH1 0x1F LT PUSH2 0x125 JUMPI PUSH2 0x100 DUP1 DUP4 SLOAD DIV MUL DUP4 MSTORE SWAP2 PUSH1 0x20 ADD SWAP2 PUSH2 0x150 JUMP JUMPDEST DUP3 ADD SWAP2 SWAP1 PUSH1 0x0 MSTORE PUSH1 0x20 PUSH1 0x0 KECCAK256 SWAP1 JUMPDEST DUP2 SLOAD DUP2 MSTORE SWAP1 PUSH1 0x1 ADD SWAP1 PUSH1 0x20 ADD DUP1 DUP4 GT PUSH2 0x133 JUMPI DUP3 SWAP1 SUB PUSH1 0x1F AND DUP3 ADD SWAP2 JUMPDEST POP POP POP POP POP SWAP1 POP SWAP1 JUMP JUMPDEST DUP3 DUP1 SLOAD PUSH2 0x166 SWAP1 PUSH2 0x436 JUMP JUMPDEST SWAP1 PUSH1 0x0 MSTORE PUSH1 0x20 PUSH1 0x0 KECCAK256 SWAP1 PUSH1 0x1F ADD PUSH1 0x20 SWAP1 DIV DUP2 ADD SWAP3 DUP3 PUSH2 0x188 JUMPI PUSH1 0x0 DUP6 SSTORE PUSH2 0x1CF JUMP JUMPDEST DUP3 PUSH1 0x1F LT PUSH2 0x1A1 JUMPI DUP1 MLOAD PUSH1 0xFF NOT AND DUP4 DUP1 ADD OR DUP6 SSTORE PUSH2 0x1CF JUMP JUMPDEST DUP3 DUP1 ADD PUSH1 0x1 ADD DUP6 SSTORE DUP3 ISZERO PUSH2 0x1CF JUMPI SWAP2 DUP3 ADD JUMPDEST DUP3 DUP2 GT ISZERO PUSH2 0x1CE JUMPI DUP3 MLOAD DUP3 SSTORE SWAP2 PUSH1 0x20 ADD SWAP2 SWAP1 PUSH1 0x1 ADD SWAP1 PUSH2 0x1B3 JUMP JUMPDEST JUMPDEST POP SWAP1 POP PUSH2 0x1DC SWAP2 SWAP1 PUSH2 0x1E0 JUMP JUMPDEST POP SWAP1 JUMP JUMPDEST JUMPDEST DUP1 DUP3 GT ISZERO PUSH2 0x1F9 JUMPI PUSH1 0x0 DUP2 PUSH1 0x0 SWAP1 SSTORE POP PUSH1 0x1 ADD PUSH2 0x1E1 JUMP JUMPDEST POP SWAP1 JUMP JUMPDEST PUSH1 0x0 PUSH2 0x210 PUSH2 0x20B DUP5 PUSH2 0x375 JUMP JUMPDEST PUSH2 0x350 JUMP JUMPDEST SWAP1 POP DUP3 DUP2 MSTORE PUSH1 0x20 DUP2 ADD DUP5 DUP5 DUP5 ADD GT ISZERO PUSH2 0x22C JUMPI PUSH2 0x22B PUSH2 0x4FC JUMP JUMPDEST JUMPDEST PUSH2 0x237 DUP5 DUP3 DUP6 PUSH2 0x3F4 JUMP JUMPDEST POP SWAP4 SWAP3 POP POP POP JUMP JUMPDEST PUSH1 0x0 DUP3 PUSH1 0x1F DUP4 ADD SLT PUSH2 0x254 JUMPI PUSH2 0x253 PUSH2 0x4F7 JUMP JUMPDEST JUMPDEST DUP2 CALLDATALOAD PUSH2 0x264 DUP5 DUP3 PUSH1 0x20 DUP7 ADD PUSH2 0x1FD JUMP JUMPDEST SWAP2 POP POP SWAP3 SWAP2 POP POP JUMP JUMPDEST PUSH1 0x0 PUSH1 0x20 DUP3 DUP5 SUB SLT ISZERO PUSH2 0x283 JUMPI PUSH2 0x282 PUSH2 0x506 JUMP JUMPDEST JUMPDEST PUSH1 0x0 DUP3 ADD CALLDATALOAD PUSH8 0xFFFFFFFFFFFFFFFF DUP2 GT ISZERO PUSH2 0x2A1 JUMPI PUSH2 0x2A0 PUSH2 0x501 JUMP JUMPDEST JUMPDEST PUSH2 0x2AD DUP5 DUP3 DUP6 ADD PUSH2 0x23F JUMP JUMPDEST SWAP2 POP POP SWAP3 SWAP2 POP POP JUMP JUMPDEST PUSH2 0x2BF DUP2 PUSH2 0x3C2 JUMP JUMPDEST DUP3 MSTORE POP POP JUMP JUMPDEST PUSH1 0x0 PUSH2 0x2D0 DUP3 PUSH2 0x3A6 JUMP JUMPDEST PUSH2 0x2DA DUP2 DUP6 PUSH2 0x3B1 JUMP JUMPDEST SWAP4 POP PUSH2 0x2EA DUP2 DUP6 PUSH1 0x20 DUP7 ADD PUSH2 0x403 JUMP JUMPDEST PUSH2 0x2F3 DUP2 PUSH2 0x50B JUMP JUMPDEST DUP5 ADD SWAP2 POP POP SWAP3 SWAP2 POP POP JUMP JUMPDEST PUSH1 0x0 PUSH1 0x40 DUP3 ADD SWAP1 POP PUSH2 0x313 PUSH1 0x0 DUP4 ADD DUP6 PUSH2 0x2B6 JUMP JUMPDEST DUP2 DUP2 SUB PUSH1 0x20 DUP4 ADD MSTORE PUSH2 0x325 DUP2 DUP5 PUSH2 0x2C5 JUMP JUMPDEST SWAP1 POP SWAP4 SWAP3 POP POP POP JUMP JUMPDEST PUSH1 0x0 PUSH1 0x20 DUP3 ADD SWAP1 POP DUP2 DUP2 SUB PUSH1 0x0 DUP4 ADD MSTORE PUSH2 0x348 DUP2 DUP5 PUSH2 0x2C5 JUMP JUMPDEST SWAP1 POP SWAP3 SWAP2 POP POP JUMP JUMPDEST PUSH1 0x0 PUSH2 0x35A PUSH2 0x36B JUMP JUMPDEST SWAP1 POP PUSH2 0x366 DUP3 DUP3 PUSH2 0x468 JUMP JUMPDEST SWAP2 SWAP1 POP JUMP JUMPDEST PUSH1 0x0 PUSH1 0x40 MLOAD SWAP1 POP SWAP1 JUMP JUMPDEST PUSH1 0x0 PUSH8 0xFFFFFFFFFFFFFFFF DUP3 GT ISZERO PUSH2 0x390 JUMPI PUSH2 0x38F PUSH2 0x4C8 JUMP JUMPDEST JUMPDEST PUSH2 0x399 DUP3 PUSH2 0x50B JUMP JUMPDEST SWAP1 POP PUSH1 0x20 DUP2 ADD SWAP1 POP SWAP2 SWAP1 POP JUMP JUMPDEST PUSH1 0x0 DUP2 MLOAD SWAP1 POP SWAP2 SWAP1 POP JUMP JUMPDEST PUSH1 0x0 DUP3 DUP3 MSTORE PUSH1 0x20 DUP3 ADD SWAP1 POP SWAP3 SWAP2 POP POP JUMP JUMPDEST PUSH1 0x0 PUSH2 0x3CD DUP3 PUSH2 0x3D4 JUMP JUMPDEST SWAP1 POP SWAP2 SWAP1 POP JUMP JUMPDEST PUSH1 0x0 PUSH20 0xFFFFFFFFFFFFFFFFFFFFFFFFFFFFFFFFFFFFFFFF DUP3 AND SWAP1 POP SWAP2 SWAP1 POP JUMP JUMPDEST DUP3 DUP2 DUP4 CALLDATACOPY PUSH1 0x0 DUP4 DUP4 ADD MSTORE POP POP POP JUMP JUMPDEST PUSH1 0x0 JUMPDEST DUP4 DUP2 LT ISZERO PUSH2 0x421 JUMPI DUP1 DUP3 ADD MLOAD DUP2 DUP5 ADD MSTORE PUSH1 0x20 DUP2 ADD SWAP1 POP PUSH2 0x406 JUMP JUMPDEST DUP4 DUP2 GT ISZERO PUSH2 0x430 JUMPI PUSH1 0x0 DUP5 DUP5 ADD MSTORE JUMPDEST POP POP POP POP JUMP JUMPDEST PUSH1 0x0 PUSH1 0x2 DUP3 DIV SWAP1 POP PUSH1 0x1 DUP3 AND DUP1 PUSH2 0x44E JUMPI PUSH1 0x7F DUP3 AND SWAP2 POP JUMPDEST PUSH1 0x20 DUP3 LT DUP2 EQ ISZERO PUSH2 0x462 JUMPI PUSH2 0x461 PUSH2 0x499 JUMP JUMPDEST JUMPDEST POP SWAP2 SWAP1 POP JUMP JUMPDEST PUSH2 0x471 DUP3 PUSH2 0x50B JUMP JUMPDEST DUP2 ADD DUP2 DUP2 LT PUSH8 0xFFFFFFFFFFFFFFFF DUP3 GT OR ISZERO PUSH2 0x490 JUMPI PUSH2 0x48F PUSH2 0x4C8 JUMP JUMPDEST JUMPDEST DUP1 PUSH1 0x40 MSTORE POP POP POP JUMP JUMPDEST PUSH32 0x4E487B7100000000000000000000000000000000000000000000000000000000 PUSH1 0x0 MSTORE PUSH1 0x22 PUSH1 0x4 MSTORE PUSH1 0x24 PUSH1 0x0 REVERT JUMPDEST PUSH32 0x4E487B7100000000000000000000000000000000000000000000000000000000 PUSH1 0x0 MSTORE PUSH1 0x41 PUSH1 0x4 MSTORE PUSH1 0x24 PUSH1 0x0 REVERT JUMPDEST PUSH1 0x0 DUP1 REVERT JUMPDEST PUSH1 0x0 DUP1 REVERT JUMPDEST PUSH1 0x0 DUP1 REVERT JUMPDEST PUSH1 0x0 DUP1 REVERT JUMPDEST PUSH1 0x0 PUSH1 0x1F NOT PUSH1 0x1F DUP4 ADD AND SWAP1 POP SWAP2 SWAP1 POP JUMP INVALID LOG2 PUSH5 0x6970667358 0x22 SLT KECCAK256 RETURNDATASIZE LOG0 0xD 0xEA PUSH3 0x8041D9 PUSH10 0x1D32CD97D77A7D1B85F9 0xD2 DUP14 0xB8 PC PUSH22 0xDF757E1663FC341B64736F6C63430008070033000000 "},"methodIdentifiers":{"getBase64()":"fe7df6a1","setBase64(string)":"620795c8"}}}}}