{
  "_format": "hh-sol-artifact-1",
  "contractName": "UpdateTransaction",
  "sourceName": "contracts/UpdateTransaction.sol",
  "abi": [
    {
      "inputs": [],
      "stateMutability": "nonpayable",
      "type": "constructor"
    },
    {
      "anonymous": false,
      "inputs": [
        {
          "indexed": false,
          "internalType": "address",
          "name": "_user",
          "type": "address"
        },
        {
          "indexed": false,
          "internalType": "string",
          "name": "_base64",
          "type": "string"
        }
      ],
      "name": "SetBase64",
      "type": "event"
    },
    {
      "anonymous": false,
      "inputs": [
        {
          "indexed": false,
          "internalType": "address",
          "name": "_user",
          "type": "address"
        },
        {
          "indexed": false,
          "internalType": "uint256",
          "name": "_number",
          "type": "uint256"
        }
      ],
      "name": "SetNumber",
      "type": "event"
    },
    {
      "inputs": [],
      "name": "get",
      "outputs": [
        {
          "internalType": "uint256",
          "name": "",
          "type": "uint256"
        }
      ],
      "stateMutability": "view",
      "type": "function"
    },
    {
      "inputs": [],
      "name": "getBase64",
      "outputs": [
        {
          "internalType": "string",
          "name": "",
          "type": "string"
        }
      ],
      "stateMutability": "view",
      "type": "function"
    },
    {
      "inputs": [
        {
          "internalType": "uint256",
          "name": "_num",
          "type": "uint256"
        }
      ],
      "name": "set",
      "outputs": [],
      "stateMutability": "nonpayable",
      "type": "function"
    },
    {
      "inputs": [
        {
          "internalType": "string",
          "name": "_newBase64",
          "type": "string"
        }
      ],
      "name": "setBase64",
      "outputs": [],
      "stateMutability": "nonpayable",
      "type": "function"
    }
  ],
  "bytecode": "0x608060405234801561001057600080fd5b506106a4806100206000396000f3fe608060405234801561001057600080fd5b506004361061004c5760003560e01c806360fe47b114610051578063620795c81461006d5780636d4ce63c14610089578063fe7df6a1146100a7575b600080fd5b61006b60048036038101906100669190610367565b6100c5565b005b6100876004803603810190610082919061031e565b610108565b005b61009161015b565b60405161009e9190610466565b60405180910390f35b6100af610164565b6040516100bc9190610444565b60405180910390f35b806000819055507f73f2f3581b2f837eb0a0b85fe0e886ca0b8bb70de4750678139d3608f54098b133826040516100fd92919061041b565b60405180910390a150565b806001908051906020019061011e9291906101f6565b507f20984856cad1d0fc11e1297bb28babf918a65e0a179748742803bdb310a160f733826040516101509291906103eb565b60405180910390a150565b60008054905090565b60606001805461017390610571565b80601f016020809104026020016040519081016040528092919081815260200182805461019f90610571565b80156101ec5780601f106101c1576101008083540402835291602001916101ec565b820191906000526020600020905b8154815290600101906020018083116101cf57829003601f168201915b5050505050905090565b82805461020290610571565b90600052602060002090601f016020900481019282610224576000855561026b565b82601f1061023d57805160ff191683800117855561026b565b8280016001018555821561026b579182015b8281111561026a57825182559160200191906001019061024f565b5b509050610278919061027c565b5090565b5b8082111561029557600081600090555060010161027d565b5090565b60006102ac6102a7846104a6565b610481565b9050828152602081018484840111156102c8576102c7610637565b5b6102d384828561052f565b509392505050565b600082601f8301126102f0576102ef610632565b5b8135610300848260208601610299565b91505092915050565b60008135905061031881610657565b92915050565b60006020828403121561033457610333610641565b5b600082013567ffffffffffffffff8111156103525761035161063c565b5b61035e848285016102db565b91505092915050565b60006020828403121561037d5761037c610641565b5b600061038b84828501610309565b91505092915050565b61039d816104f3565b82525050565b60006103ae826104d7565b6103b881856104e2565b93506103c881856020860161053e565b6103d181610646565b840191505092915050565b6103e581610525565b82525050565b60006040820190506104006000830185610394565b818103602083015261041281846103a3565b90509392505050565b60006040820190506104306000830185610394565b61043d60208301846103dc565b9392505050565b6000602082019050818103600083015261045e81846103a3565b905092915050565b600060208201905061047b60008301846103dc565b92915050565b600061048b61049c565b905061049782826105a3565b919050565b6000604051905090565b600067ffffffffffffffff8211156104c1576104c0610603565b5b6104ca82610646565b9050602081019050919050565b600081519050919050565b600082825260208201905092915050565b60006104fe82610505565b9050919050565b600073ffffffffffffffffffffffffffffffffffffffff82169050919050565b6000819050919050565b82818337600083830152505050565b60005b8381101561055c578082015181840152602081019050610541565b8381111561056b576000848401525b50505050565b6000600282049050600182168061058957607f821691505b6020821081141561059d5761059c6105d4565b5b50919050565b6105ac82610646565b810181811067ffffffffffffffff821117156105cb576105ca610603565b5b80604052505050565b7f4e487b7100000000000000000000000000000000000000000000000000000000600052602260045260246000fd5b7f4e487b7100000000000000000000000000000000000000000000000000000000600052604160045260246000fd5b600080fd5b600080fd5b600080fd5b600080fd5b6000601f19601f8301169050919050565b61066081610525565b811461066b57600080fd5b5056fea26469706673582212202c42cb36283b254ab275778702b791b1b24f1d59f3e4ddd35e6a995b49f42bc064736f6c63430008070033",
  "linkReferences": {},
  "deployedLinkReferences": {}
}