{
  "_format": "hh-sol-artifact-1",
  "contractName": "UpdateBase64Transaction",
  "sourceName": "contracts/UpdateBase64Transaction.sol",
  "abi": [
    {
      "inputs": [],
      "stateMutability": "nonpayable",
      "type": "constructor"
    },
    {
      "anonymous": false,
      "inputs": [
        {
          "indexed": false,
          "internalType": "address",
          "name": "_user",
          "type": "address"
        },
        {
          "indexed": false,
          "internalType": "string",
          "name": "_base64",
          "type": "string"
        }
      ],
      "name": "SetBase64",
      "type": "event"
    },
    {
      "inputs": [],
      "name": "getBase64",
      "outputs": [
        {
          "internalType": "string",
          "name": "",
          "type": "string"
        }
      ],
      "stateMutability": "view",
      "type": "function"
    },
    {
      "inputs": [
        {
          "internalType": "string",
          "name": "_newBase64",
          "type": "string"
        }
      ],
      "name": "setBase64",
      "outputs": [],
      "stateMutability": "nonpayable",
      "type": "function"
    }
  ],
  "bytecode": "0x608060405234801561001057600080fd5b50610552806100206000396000f3fe608060405234801561001057600080fd5b50600436106100365760003560e01c8063620795c81461003b578063fe7df6a114610057575b600080fd5b6100556004803603810190610050919061026d565b610075565b005b61005f6100c8565b60405161006c919061032e565b60405180910390f35b806000908051906020019061008b92919061015a565b507f20984856cad1d0fc11e1297bb28babf918a65e0a179748742803bdb310a160f733826040516100bd9291906102fe565b60405180910390a150565b6060600080546100d790610436565b80601f016020809104026020016040519081016040528092919081815260200182805461010390610436565b80156101505780601f1061012557610100808354040283529160200191610150565b820191906000526020600020905b81548152906001019060200180831161013357829003601f168201915b5050505050905090565b82805461016690610436565b90600052602060002090601f01602090048101928261018857600085556101cf565b82601f106101a157805160ff19168380011785556101cf565b828001600101855582156101cf579182015b828111156101ce5782518255916020019190600101906101b3565b5b5090506101dc91906101e0565b5090565b5b808211156101f95760008160009055506001016101e1565b5090565b600061021061020b84610375565b610350565b90508281526020810184848401111561022c5761022b6104fc565b5b6102378482856103f4565b509392505050565b600082601f830112610254576102536104f7565b5b81356102648482602086016101fd565b91505092915050565b60006020828403121561028357610282610506565b5b600082013567ffffffffffffffff8111156102a1576102a0610501565b5b6102ad8482850161023f565b91505092915050565b6102bf816103c2565b82525050565b60006102d0826103a6565b6102da81856103b1565b93506102ea818560208601610403565b6102f38161050b565b840191505092915050565b600060408201905061031360008301856102b6565b818103602083015261032581846102c5565b90509392505050565b6000602082019050818103600083015261034881846102c5565b905092915050565b600061035a61036b565b90506103668282610468565b919050565b6000604051905090565b600067ffffffffffffffff8211156103905761038f6104c8565b5b6103998261050b565b9050602081019050919050565b600081519050919050565b600082825260208201905092915050565b60006103cd826103d4565b9050919050565b600073ffffffffffffffffffffffffffffffffffffffff82169050919050565b82818337600083830152505050565b60005b83811015610421578082015181840152602081019050610406565b83811115610430576000848401525b50505050565b6000600282049050600182168061044e57607f821691505b6020821081141561046257610461610499565b5b50919050565b6104718261050b565b810181811067ffffffffffffffff821117156104905761048f6104c8565b5b80604052505050565b7f4e487b7100000000000000000000000000000000000000000000000000000000600052602260045260246000fd5b7f4e487b7100000000000000000000000000000000000000000000000000000000600052604160045260246000fd5b600080fd5b600080fd5b600080fd5b600080fd5b6000601f19601f830116905091905056fea26469706673582212203da00dea628041d9691d32cd97d77a7d1b85f9d28db85875df757e1663fc341b64736f6c63430008070033",
  "linkReferences": {},
  "deployedLinkReferences": {}
}